:1000000001308A00FA2900000A108A100A118207BA
:1000100028340C34013406344234DD344C34473453
:10002000DD34533441345934413452340034A02641
:1000300055244527C424531000004234DD344C3489
:100040004734DD345334413459344134523400346C
:10005000A02655244527C4245310000027308400CF
:1000600083130008031941280630F800F701F70B45
:100070003728F80B36287B30F700F70B3D28800B2C
:10008000342808002E18462806124728061683161C
:1000900006128312AE184E2886124F288616831633
:1000A000861283122E195628061357280617831610
:1000B00006138312AE195E2886135F2886178316EF
:1000C0008613000083120516831605120230F7000E
:1000D000F70B68286B28000083120512831605129F
:1000E00083120800AF018316061600308312061A29
:1000F0000130AF048316861600308312861A013051
:10010000F7000310F70D7708AF04831606170030C9
:100110008312061B0130F700F70DF70DFC30F705D1
:100120007708AF048316861700308312861B0130D0
:10013000F700F70DF70DF70DF830F7057708AF0466
:100140002F08F80008008316051285128312201369
:1001500020088316870083128512831685120616DF
:100160008616061786178312071720132008831692
:100170008700000083120516831605120000831203
:1001800072207808AE000512831605120000831253
:10019000051683160512CC28CD2800008312722084
:1001A0007808AD0005128316051206128612061392
:1001B000861383122E0EF700F030F70577082D0412
:1001C000F8007808AD00AD1FE7288316AF28AB080C
:1001D000031DEC288512ED28851683168512000074
:1001E0008312071320132008831687000000831250
:1001F00005128316051283122C0EAD000F30AD05CB
:100200002D08AE0042202C080F39AD00AE00422070
:10021000080083160612861206138613051285122D
:1002200083122013200883168700831285128316F9
:100230008512831207132013200883168700831268
:100240000512831605120F308312A7002E200130ED
:10025000A2002208033C031C35290330AE004220D3
:100260000530A7002E20A20A29290230AE00422024
:100270000530A7002E20A2012208033C031C4929B7
:1002800022080420A300AB012308AC00A320A20A8B
:100290003C298A110A12082A280B4F29522940307A
:1002A000A9005329A90101302702A907290880388C
:1002B000AA00AB012A08AC00A32008002608073AD0
:1002C00003196C290B3A03197129063A0319792984
:1002D000023A03197F2984290130A700A8004C2184
:1002E0008929AB010130AC00A3200230A7002E20E9
:1002F00089290130A7000230A8004C218929AB01CF
:100300001030AC00A32089290130AB002608AC00D6
:10031000A3200800831603178C170C14000000009C
:1003200083128C080319AD290D080313A2000317CB
:100330000F080313A30003170C080313A6005E2184
:10034000220803178D000313230803178F008D0A5B
:1003500003198F0A03138A290317031308000B08D4
:10036000A2008B13831603178C170C1400000000D7
:1003700083120C087F390319F6290313A30003170E
:100380000D080313A40003170F080313A500230887
:10039000A6005E21240803178D0003132508031708
:1003A0008F0083168C170C140000000083120C0DB4
:1003B0000E0D7F390319F6290313A30003170D0847
:1003C0000313A40003170F080313A5002308A600B6
:1003D0005E21240803178D000313250803178F00DF
:1003E0008D0A03198F0A0313B22903170313A21BE3
:1003F0008B170800FF30A00083161F149F141F15D1
:100400009F1107309C0083131F3083058312092935
:100410000130A1002108073C031C302A0C30A60043
:100420005E212108A7000130A8004C210C300317E1
:100430008D0000308F0003138A212108083CA200A0
:10044000A7000230A8004C21173003178D000030A0
:100450008F000313AF21C830A7002E20A10A0A2A5B
:100460000730A1002108003C0318582A0C30A600D0
:100470005E212108A7000130A8004C211D30031780
:100480008D0000308F0003138A212108083CA20050
:10049000A7000230A8004C21283003178D0000303F
:1004A0008F000313AF21C830A7002E20A103322AEA
:0404B000082A6300B3
:02400E00323F3F
:00000001FF
;PIC16F877A
;CRC=2896  CREATED="11-Aðu-20 14:18"
