:1000000002308A00322A00000A108A100A11820780
:1000100028340C34013406340C102810203C2010F5
:100020002C10A03C20102910200520102518342663
:1000300075102C102518342675002F30840083137A
:100040000008031930280630F800F701F70B2628BE
:10005000F80B25287B30F700F70B2C28800B232882
:10006000080036183528061236280616831606129A
:100070008312B6183D2886123E28861683168612ED
:1000800083123619452806134628061783160613C9
:100090008312B6194D2886134E28861783168613A9
:1000A000000083120516831605120230F700F70BC5
:1000B00057285A280000831205128316051283124E
:1000C0000800B7018316061600308312061A0130A5
:1000D000B7048316861600308312861A0130F700A3
:1000E0000310F70D7708B704831606170030831244
:1000F000061B0130F700F70DF70DFC30F705770808
:10010000B7048316861700308312861B0130F70070
:10011000F70DF70DF70DF830F7057708B704370836
:10012000F800080083160512851283122013200898
:10013000831687008312851283168512061686168B
:1001400006178617831207172013200883168700C7
:100150000000831205168316051200008312612029
:100160007808B600051283160512000083120516E2
:1001700083160512BB28BC28000083126120780872
:10018000B500051283160512061286120613861391
:100190008312360EF700F030F70577083504F800C3
:1001A0007808B500B51FD62883169E28B308031D0E
:1001B000DB288512DC288516831685120000831241
:1001C00007132013200883168700000083120512EE
:1001D000831605128312340EB5000F30B5053508AD
:1001E000B600312034080F39B500B60031200800C0
:1001F00083160612861206138613051285128312C1
:100200002013200883168700831285128316851217
:100210008312071320132008831687008312051208
:10022000831605120F308312AF001D200130A50088
:100230002508033C031C24290330B6003120053077
:10024000AF001D20A50A18290230B6003120053064
:10025000AF001D20A5012508033C031C38292508F3
:100260000420A600B3012608B4009220A50A2B2979
:100270008A110A12402A300B3E2941294030B10030
:100280004229B10101302F02B10731088038B20094
:10029000B3013208B400922008002E08073A03196F
:1002A0005B290B3A03196029063A03196829023AB7
:1002B00003196E2973290130AF00B0003B21782962
:1002C000B3010130B40092200230AF001D20782924
:1002D0000130AF000230B0003B217829B30110306B
:1002E000B400922078290130B3002E08B400922087
:1002F00008000B08A6008B13831603178C170C1429
:10030000000000000318AB2983120C087F39031387
:10031000A70003170D080313A80003170F08031302
:10032000A9002708AE004D21280803178D000313EC
:10033000290803178F0083168C170C140000000087
:1003400083120313A50BA529A82983160317AB292C
:10035000CA298316031783120C0D0E0D7F39031360
:10036000A70003170D080313A80003170F080313B2
:10037000A9002708AE004D21280803178D0003139C
:10038000290803178F008D0A03198F0A031003131E
:10039000A50B7C29A61B8B178A110A128F2AAD0187
:1003A0000408AC002D10831B2D14260EF038A80075
:1003B000A807E23EA900323EAB0026080F39A90784
:1003C000A907AB07E93EAA00AA07AA07250E0F391D
:1003D000AA07AB07AA0DAB0DAB09AB0D25080F396A
:1003E000AB07A80D0730A7000A30AB07AA03031C10
:1003F000F529AA07A903031CF929A907A803031CC7
:10040000FD29A807A703031C012A273084008313B2
:1004100007302C052C1384072B30040203192C17EA
:100420000008F700031D1C2A2C1B1C2A2C1A2E2A3C
:10043000AC191C2A20301F2AAC152C123030F707BB
:10044000A6010408A5002610831B26147708AE0019
:100450004D2125088400831326188317840A2C1F36
:100460000C2A0800FF30A00083161F149F141F15CC
:100470009F1107309C0083131F3083058312F828D7
:1004800083161F1383121F139F1383169F17831244
:100490001F1483161F109F101F119F112830F80082
:1004A00083121F08C73978049F0083161F109F10FE
:1004B0001F119F112830F80083121F08C7397804D4
:1004C0009F001F151F19622A83161E088312A3009E
:1004D0001E08A4000130AF001D203030F8001F08B6
:1004E000C73978049F001F151F19742A83161E0828
:1004F0008312A1001E08A2000130AF001D20831648
:100500001F149F141F159F110C30831203178D00A9
:1005100000308F00031014300313A500792909302F
:1005200084002208A6002108A500CF212030AE00BB
:100530004D212C30AE004D212030AE004D21093030
:1005400084002408A6002308A500CF211E30AF0098
:060550001D20552A630086
:02400E00323F3F
:00000001FF
;PIC16F877A
;CRC=8DCD  CREATED="12-Aðu-20 17:53"
