:1000000002308A00372A00000A108A100A1182077B
:1000100028340C34013406340C104F29D420200528
:10002000A012301ACC3A00000C104926452949107C
:100030000A102518342675000C10C722D22420057A
:10004000A012301ACC3A00002F308400831300082D
:10005000031937280630F800F701F70B2D28F80BA5
:100060002C287B30F700F70B3328800B2A28080058
:1000700036183C2806123D280616831606128312EF
:10008000B6184428861245288616831686128312CF
:1000900036194C2806134D280617831606138312AB
:1000A000B619542886135528861783168613000020
:1000B00083120516831605120230F700F70B5E282F
:1000C00061280000831205128316051283120800AE
:1000D000B7018316061600308312061A0130B704E2
:1000E0008316861600308312861A0130F70003103B
:1000F000F70D7708B7048316061700308312061B26
:100100000130F700F70DF70DFC30F7057708B7045D
:100110008316861700308312861B0130F700F70D17
:10012000F70DF70DF830F7057708B7043708F80032
:1001300008008316051285128312201320088316E7
:1001400087008312851283168512061686160617F7
:1001500086178312071720132008831687000000D4
:100160008312051683160512000083126820780892
:10017000B6000512831605120000831205168316B9
:100180000512C228C3280000831268207808B50031
:1001900005128316051206128612061386138312A1
:1001A000360EF700F030F70577083504F8007808C8
:1001B000B500B51FDD288316A528B308031DE22866
:1001C0008512E32885168316851200008312071313
:1001D000201320088316870000008312051283165F
:1001E00005128312340EB5000F30B5053508B60080
:1001F000382034080F39B500B600382008008316BF
:100200000612861206138613051285128312201316
:1002100020088316870083128512831685128312A5
:1002200007132013200883168700831205128316F4
:1002300005120F308312AF0024200130A5002508DD
:10024000033C031C2B290330B60038200530AF00D7
:100250002420A50A1F290230B60038200530AF003F
:100260002420A5012508033C031C3F292508042060
:10027000A600B3012608B4009920A50A32298A11E4
:100280000A12452A300B452948294030B100492936
:10029000B10101302F02B10731088038B200B3013B
:1002A0003208B400992008002E08073A0319622981
:1002B0000B3A03196729063A03196F29023A031901
:1002C00075297A290130AF00B00042217F29B3019E
:1002D0000130B40099200230AF0024207F29013082
:1002E000AF000230B00042217F29B3011030B400CA
:1002F00099207F290130B3002E08B400992008000E
:100300000B08A6008B13831603178C170C14000020
:1003100000000318B22983120C087F390313A700C9
:1003200003170D080313A80003170F080313A900F0
:100330002708AE005421280803178D00031329084D
:1003400003178F0083168C170C1400000000831213
:100350000313A50BAC29AF2983160317B229D129A2
:100360008316031783120C0D0E0D7F390313A7009C
:1003700003170D080313A80003170F080313A900A0
:100380002708AE005421280803178D0003132908FD
:1003900003178F008D0A03198F0A03100313A50B8F
:1003A0008329A61B8B170800AD010408AC002D1093
:1003B000831B2D14260EF038A800A807E23EA900E2
:1003C000323EAB0026080F39A907A907AB07E93E63
:1003D000AA00AA07AA07250E0F39AA07AB07AA0D7C
:1003E000AB0DAB09AB0D25080F39AB07A80D0730D6
:1003F000A7000A30AB07AA03031CFA29AA07A9031E
:10040000031CFE29A907A803031C022AA807A703A7
:10041000031C062A27308400831307302C052C1375
:1004200084072B30040203192C170008F700031D62
:10043000212A2C1B212A2C1A332AAC19212A2030DC
:10044000242AAC152C123030F707A6010408A500A9
:100450002610831B26147708AE005421250884003B
:10046000831326188317840A2C1F112A0800FF30D3
:10047000A00083161F149F141F159F1107309C00A6
:1004800083131F3083058312FF2883161F138312E3
:100490001F139F1383169F1783121F1483161F1099
:1004A0009F101F119F112830F80083121F08C739B1
:1004B00078049F000030A000831687018312870113
:1004C0002011200883168700831207110C30970033
:1004D0000030F80005389200FF3083169200831236
:1004E000950183161F109F101F119F112830F800CF
:1004F00083121F08C73978049F001F151F197E2A11
:1005000083161E088312A1001E08A2000130AF004E
:100510002420A108031DBC2A2208023C031DBC2A7A
:10052000A401A30183161F149F141F159F110C30E3
:10053000831203178D0000308F000310093003135E
:10054000A5008021093084002408A6002308A50006
:10055000D4212408F9002308F800F90CF80CF90C50
:10056000F80CF90C78089500F90C790C3039F70083
:100570001708CF39770497002208013C03180A2B8B
:10058000FF3A031DC72A2108003C03180A2B20103C
:100590002008831687008312071400302302A50069
:1005A0002408A6000230031C0330A6020310A50D88
:1005B000A60D01302507A3002608A4000318A40AED
:1005C00083161F149F141F159F11143083120317D5
:1005D0008D0000308F0003100A300313A500802126
:1005E000093084002408A6002308A500D42124088B
:1005F000F9002308F800F90CF80CF90CF80CF90CC8
:1006000078089500F90C790C3039F7001708CF39C4
:10061000770497002208013C031C512B201020086E
:1006200083168700831207142308FF3CA5000130BE
:10063000A6002408031C240FA6020310A50DA60D76
:1006400001302507A3002608A4000318A40A831676
:100650001F149F141F159F111C30831203178D0048
:1006600000308F00031009300313A50080210930EA
:1006700084002408A6002308A500D4212408F9003A
:100680002308F800F90CF80CF90CF80CF90C7808B0
:100690009500F90C790C3039F7001708CF39770439
:0C06A00097000530AF002420602A6300A2
:02400E00323F3F
:00000001FF
;PIC16F877A
;CRC=5993  CREATED="12-Aðu-20 12:24"
