:1000000001308A00262900002D3084008313000867
:10001000031917280630F800F701F70B0D28F80B25
:100020000C287B30F700F70B1328800B0A280800F8
:10003000A60183168801F730831288000130AD00D5
:100040000420831608168312081A28280130A600F7
:10005000831688168312881A2F280230A60083166A
:1000600008178312081B36280330A600831688174A
:100070008312881B3D280430A60083168801FB30BC
:10008000831288000130AD00042083160816831205
:10009000081A4C280530A600831688168312881A81
:1000A00053280630A600831608178312081B5A2807
:1000B0000730A600831688178312881B6128083032
:1000C000A60083168801FD30831288000130AD0040
:1000D0000420831608168312081A70280930A60017
:1000E000831688168312881A77280A30A60083168A
:1000F00008178312081B7E280B30A600831688176A
:100100008312881B85280C30A60083168801FE30D8
:10011000831288000130AD00042083160816831274
:10012000081A94280D30A600831688168312881AA0
:100130009B280E30A600831608178312081BA228DE
:100140000F30A600831688178312881BA928103049
:10015000A6002608F8008A110A124E292E08F80176
:100160002D020318B6282D08F700C228F701083021
:10017000AF00AD0DF70D2E0877020318F700F80D4C
:10018000AF0BB9280800A00A2008F93C031CA00105
:100190002608AD000A30AE00AE207808A900260877
:1001A000AD000A30AE00AE207708AA002708AD00E7
:1001B0000A30AE00AE207808AB002708AD000A3048
:1001C000AE00AE207708AC008316860101308312A2
:1001D0008600831688018312290888000130AD004B
:1001E00004208316860102308312860020087D3C9D
:1001F000031CFD28A808031D2A16831688018312F4
:100200002A0888000130AD000420831686010430DE
:10021000831286008316880183122B088800013020
:10022000AD000420831686010830831286008316F1
:10023000880183122C0888000130AD000420831649
:100240008601831286018A110A12912983161F14CE
:100250009F141F159F1107309C0083131F308305C7
:100260008312A001A101A11B39292108173C031CFD
:100270009B29A201A21B402922083B3C031C99296F
:10028000A5010130A4002508013C031C9729031D8A
:100290004D292408F43C031C9729182802307802C1
:1002A000FA3E03188229063E9D29A10AA11B5C295A
:1002B0002108173C031CA101A5010130A4008229DB
:1002C000A1032108803A7F3C031C68291730A10054
:1002D000A5010130A4008229A20AA21B73292208C9
:1002E0003B3C031CA201A5010130A4008229A2030A
:1002F0002208803A7F3C031C7F293B30A100A501E6
:100300000130A4000130A300A31B8A2923081D3C4F
:10031000031C93292108A6002208A7000130A80089
:10032000C328A30A8429A40A0319A50A4329A20AF7
:100330003A29A10A3329322963000A148A100A11C2
:0E034000820755296C29822982296029772994
:02400E00323F3F
:00000001FF
;PIC16F877A
;CRC=865B  CREATED="11-Aðu-20 16:44"
