:1000000004308A00F72C00000A108A100A118207B7
:1000100028340C34013406340C1020102518B23A60
:10002000AF123019F51732182518B23A20102010E7
:100030000A102010A0123019751D2518B23ABA12F4
:100040003019751D00000830F8000430F700F70B78
:1000500027288711A0112008831687000330F70096
:10006000F70B30288312B10D0712031C3D28201610
:100070002008831687004128831220122008831647
:10008000870000008312A0152008831687008312C2
:10009000871D4828F80B25280430F700F70B4E2859
:1000A0008711A011200883168700000083122016F4
:1000B0002008831687000330F700F70B5D28033014
:1000C000F700F70B61288312A0152008831687001C
:1000D0008312871D6928F8010330F700F70B6E289B
:1000E000071A78148711A01120088316870083123D
:1000F0000712201220088316870083120800083098
:10010000AE007708AF002016200883168700033062
:10011000F700F70B89288312A015200883168700A3
:100120008312871D9128071A0314071E0310F80D68
:100130000430F700F70B9A28A011200883168700D7
:1001400083128711AE0B83282016200883168700A0
:100150000330F700F70BAA28831207122F080319A0
:10016000B628201220088316870083120000A015ED
:100170002008831687008312871DBC280430F700EF
:10018000F70BC0288711A0112008831687000330C1
:10019000F700F70BC92883120712201220088316D4
:1001A0008700831208002E08AF000310AF0C7830D0
:1001B000AF052F0CF700F70C3F30F70577082F0736
:1001C000B0002E080F393007F80008003008B100E1
:1001D000B2013108093C0318F2280A30B10210308C
:1001E000B207F5283108B207F628E9283208F800E6
:1001F0000800A90120162008831687000430F700A4
:10020000F70B00298312A0152008831687000330FE
:10021000F700F70B09298312071220122008831612
:1002200087000430F700F70B132983128711A01100
:10023000200883168700D0308312B1002320B1013B
:10024000232020162008831687000430F700F70BC0
:1002500027298312A0152008831687000330F70092
:10026000F70B30298312871D33290712201220082B
:10027000831687000430F700F70B3C29831287119F
:10028000A011200883168700D1308312B1002320EB
:10029000F7017F207808AA00AE00D3207808A900D3
:1002A000201220088316870000008312A015200862
:1002B000831687008312871D5B290430F700F70B34
:1002C0005F29622900002016200883168700043069
:1002D000F700F70B69298312A9130430F700F70B15
:1002E0006F29722920162008831687000430F70032
:1002F000F70B78298312A015200883168700033096
:10030000F700F70B812983120712201220088316A9
:1003100087000430F700F70B8B2983128711A01197
:10032000200883168700D0308312B1002320B1014A
:1003300023202908B000E6207808AA00B100232075
:1003400020162008831687000430F700F70BA62933
:100350008312A0152008831687000330F700F70BDF
:10036000AF298312871DB229071220122008831695
:1003700087000430F700F70BBB2983128711A01107
:10038000200883168700D0308312B1002320073065
:10039000B10023208030B1002320201220088316D2
:1003A000870000008312A01520088316870083129F
:1003B000871DD8290430F700F70BDC29DF2900005E
:1003C00020162008831687000430F700F70BE62973
:1003D00083128A110A12052D2F308400831300081E
:1003E0000319FF290630F800F701F70BF529F80B80
:1003F000F4297B30F700F70BFB29800BF22908006A
:100400003618042A0612052A0616831606128312C7
:10041000B6180C2A86120D2A8616831686128312A7
:100420003619142A0613152A061783160613831283
:10043000B6191C2A86131D2A8617831686130000F8
:1004400083120516831605120230F700F70B262AD1
:10045000292A000083120512831605128312080050
:10046000B7018316061600308312061A0130B7044E
:100470008316861600308312861A0130F7000310A7
:10048000F70D7708B7048316061700308312061B92
:100490000130F700F70DF70DFC30F7057708B704CA
:1004A0008316861700308312861B0130F700F70D84
:1004B000F70DF70DF830F7057708B7043708F8009F
:1004C0000800831605128512831220132008831654
:1004D0008700831285128316851206168616061764
:1004E0008617831207172013200883168700000041
:1004F0008312051683160512000083123022780835
:10050000B600051283160512000083120516831625
:1005100005128A2A8B2A0000831230227808B5003F
:10052000051283160512061286120613861383120D
:10053000360EF700F030F70577083504F800780834
:10054000B500B51FA52A83166D2AB308031DAA2A74
:100550008512AB2A851683168512000083120713B5
:1005600020132008831687000000831205128316CB
:1005700005128312340EB5000F30B5053508B600EC
:10058000002234080F39B500B60000220800831697
:100590000612861206138613051285128312201383
:1005A0002008831687008312851283168512831212
:1005B0000713201320088316870083120512831661
:1005C00005120F308312AF00EC210130A900290879
:1005D000033C031CF32A0330B60000220530AF00B1
:1005E000EC21A90AE72A0230B60000220530AF004C
:1005F000EC21A9012908033C031C072B290804202E
:10060000AA00B3012A08B4006122A90AFA2A8A11B1
:100610000A12062DAF133F30AD05201620088316B1
:1006200087000430F700F70B132B8312A015200866
:10063000831687000330F700F70B1C2B8312071279
:1006400020122008831687000430F700F70B262BB2
:1006500083128711A011200883168700D0308312DF
:10066000B1002320B10123202F08B000E620780834
:10067000B000B10023202E08B000E6207808B000BA
:10068000B10023202D08B000E6207808B000B100AA
:1006900023202C08B000E6207808B000B100232009
:1006A0002908B000E6207808B000B10023202A080D
:1006B000B000E6207808B000B10023202B08B0007D
:1006C000E6207808B000B10023208030B10023205C
:1006D000201220088316870000008312A01520082E
:1006E000831687008312871D732B0430F700F70BE6
:1006F000772B7A2B00002016200883168700043001
:10070000F700F70B812B83120800300B882B8B2B03
:100710004030B1008C2BB10101302F02B1073108FC
:100720008038B200B3013208B400612208002E08FC
:10073000073A0319A52B0B3A0319AA2B063A0319FA
:10074000B22B023A0319B82BBD2B0130AF00B00019
:100750008523C22BB3010130B40061220230AF0007
:10076000EC21C22B0130AF000230B0008523C22B38
:10077000B3011030B4006122C22B0130B3002E0847
:10078000B400612208000B08AA008B13831603171C
:100790008C170C14000000000318F52B83120C08B2
:1007A0007F390313AB0003170D080313AC000317C5
:1007B0000F080313AD002B08AE0097232C08031776
:1007C0008D0003132D0803178F0083168C170C144C
:1007D0000000000083120313A90BEF2BF22B8316EA
:1007E0000317F52B142C8316031783120C0D0E0D13
:1007F0007F390313AB0003170D080313AC00031775
:100800000F080313AD002B08AE0097232C08031725
:100810008D0003132D0803178F008D0A03198F0A0B
:1008200003100313A90BC62BAA1B8B1708002C0857
:10083000F8012B0203181F2C2B08F7002B2CF701B3
:100840000830AD00AB0DF70D2C0877020318F70048
:10085000F80DAD0B222C080078082908AB00643095
:10086000AC0017247708A90078083030031D3F2C0E
:10087000AA1C462CAA19462C2A1A2030422CAA114E
:100880002A122A14F8077808AE0097232908AB002B
:100890000A30AC0017247708A90078083030031D0F
:1008A000572CAA195B2C2A1C5B2C2A1A2030F8071B
:1008B0007808AE0097233030A9072908AE009723A7
:1008C0000800A90183168801F730831288000130DF
:1008D000AF00EC21831608168312081A712C013020
:1008E000A900831688168312881A782C0230A90072
:1008F000831608178312081B7F2C0330A900831668
:1009000088178312881B862C0430A900831688015F
:10091000FB30831288000130AF00EC2183160816EB
:100920008312081A952C0530A900831688168312A5
:10093000881A9C2C0630A900831608178312081BFE
:10094000A32C0730A900831688178312881BAA2CB2
:100950000830A90083168801FD3083128800013019
:10096000AF00EC21831608168312081AB92C09303F
:10097000A900831688168312881AC02C0A30A90091
:10098000831608178312081BC72C0B30A900831687
:1009900088178312881BCE2C0C30A900831688017F
:1009A000FE30831288000130AF00EC218316081658
:1009B0008312081ADD2C0D30A900831688168312C5
:1009C000881AE42C0E30A900831608178312081B1E
:1009D000EB2C0F30A900831688178312881BF22C8A
:1009E0001030A9002908F8008A110A12772EFF306A
:1009F000A00083161F149F141F159F1107309C0021
:100A000083131F3083058312F928C72A0D30A900EC
:100A10000830AA001430AB000430AC000A30AD003E
:100A20001430AE00AF010A23201620088316870079
:100A30000430F700F70B1A2D8312A0152008831637
:100A400087000330F700F70B232D831207122012C3
:100A50002008831687000430F700F70B2D2D831232
:100A60008711A011200883168700D0308312B100AF
:100A700023200330B100232020162008831687008E
:100A80000430F700F70B422D8312A01520088316BF
:100A900087000330F700F70B4B2D8312871D4E2D77
:100AA000071220122008831687000430F700F70B86
:100AB000572D83128711A011200883168700D1308B
:100AC0008312B10023200130F7007F2078087F399E
:100AD000A900AE00D3207808A4000130F7007F20E1
:100AE00078083F39A900AE00D3207808A100013072
:100AF000F7007F2078081F39A900AE00D3207808BE
:100B0000A200F7017F207808A900AE00D320780862
:100B1000A300201220088316870000008312A0156E
:100B20002008831687008312871D942D0430F70058
:100B3000F70B982D9B2D00002016200883168700A8
:100B40000430F700F70BA22D83122016200883161D
:100B500087000430F700F70BAB2D8312A015200897
:100B6000831687000330F700F70BB42D83120712AA
:100B700020122008831687000430F700F70BBE2DE3
:100B800083128711A011200883168700D0308312AA
:100B9000B1002320B10123202016200883168700EE
:100BA0000430F700F70BD22D8312A015200883160E
:100BB00087000330F700F70BDB2D8312871DDE2D36
:100BC000071220122008831687000430F700F70B65
:100BD000E72D83128711A011200883168700D130DA
:100BE0008312B10023200130F7007F2078087F397D
:100BF000A900AE00D3207808A7000130F7007F20BD
:100C000078087F39A900AE00D3207808A600F70144
:100C10007F2078083F39A900AE00D3207808A500CE
:100C2000201220088316870000008312A0152008D8
:100C3000831687008312871D1B2E0430F700F70BE5
:100C40001F2E222E00002016200883168700043055
:100C5000F700F70B292E0C30831203178D0000309C
:100C60008F00031004300313A900C3232108A90037
:100C70000130AA002C242F30AE0097232208A900AF
:100C80000130AA002C242F30AE0097233230AE0062
:100C900097233030AE0097232308A9000130AA0023
:100CA0002C24163003178D0000308F0003100930FC
:100CB0000313A900C3232508A9000130AA002C248E
:100CC0003A30AE0097232608A9000130AA002C2450
:100CD0003A30AE0097232708A9000130AA002C243F
:100CE0003A30AE0097239630AF00EC21612C0130F2
:100CF0007802F63E0318122F0A3E142FA50AA51BF0
:100D0000852E2508173C031CA5012108A9002208EF
:100D1000AA002308AB002408AC002508AD00260873
:100D2000AE002708AF000A23122FA5032508803A3A
:100D30007F3C031C9D2E1730A500A7012108A900A8
:100D40002208AA002308AB002408AC002508AD0047
:100D50002608AE002708AF000A23122FA60AA61BFA
:100D6000B52E26083B3C031CA601A7012108A900BB
:100D70002208AA002308AB002408AC002508AD0017
:100D80002608AE002708AF000A23122FA603260864
:100D9000803A7F3C031CCE2E3B30A600A7012108E1
:100DA000A9002208AA002308AB002408AC002508EB
:100DB000AD002608AE002708AF000A23122FA203B9
:100DC000A31BE62E2308133C031CE82E6330A3006C
:100DD000A7012108A9002208AA002308AB002408C3
:100DE000AC002508AD002608AE002708AF000A2396
:100DF000122FA10AA31B022F2308633C0318022F02
:100E00001430A300A7012108A9002208AA00230882
:100E1000AB002408AC002508AD002608AE0027086A
:100E2000AF000A23142D63000A148A140A158207DE
:100E3000952E7E2EC62EAE2E122F122F122F122F6F
:040E4000DF2EF92E7A
:02400E00323F3F
:00000001FF
;PIC16F877A
;CRC=2665  CREATED="13-Aðu-20 18:39"
