:1000000002308A00322A00000A108A100A11820780
:1000100028340C34013406340C102810203C2010F5
:100020002C10A03C20102910200520102518342663
:1000300075102C1025183426750033308400831376
:100040000008031930280630F800F701F70B2628BE
:10005000F80B25287B30F700F70B2C28800B232882
:1000600008003A1835280612362806168316061296
:100070008312BA183D2886123E28861683168612E9
:1000800083123A19452806134628061783160613C5
:100090008312BA194D2886134E28861783168613A5
:1000A000000083120516831605120230F700F70BC5
:1000B00057285A280000831205128316051283124E
:1000C0000800BB018316061600308312061A0130A1
:1000D000BB048316861600308312861A0130F7009F
:1000E0000310F70D7708BB04831606170030831240
:1000F000061B0130F700F70DF70DFC30F705770808
:10010000BB048316861700308312861B0130F7006C
:10011000F70DF70DF70DF830F7057708BB043B082E
:10012000F800080083160512851283122013200898
:10013000831687008312851283168512061686168B
:1001400006178617831207172013200883168700C7
:100150000000831205168316051200008312612029
:100160007808BA00051283160512000083120516DE
:1001700083160512BB28BC28000083126120780872
:10018000B90005128316051206128612061386138D
:1001900083123A0EF700F030F70577083904F800BB
:1001A0007808B900B91FD62883169E28B708031D02
:1001B000DB288512DC288516831685120000831241
:1001C00007132013200883168700000083120512EE
:1001D000831605128312380EB9000F30B90539089D
:1001E000BA00312038080F39B900BA0031200800B0
:1001F00083160612861206138613051285128312C1
:100200002013200883168700831285128316851217
:100210008312071320132008831687008312051208
:10022000831605120F308312B3001D200130A90080
:100230002908033C031C24290330BA00312005306F
:10024000B3001D20A90A18290230BA003120053058
:10025000B3001D20A9012908033C031C38292908E3
:100260000420AA00B7012A08B8009220A90A2B2965
:100270008A110A12402A340B3E2941294030B50028
:100280004229B50101303302B50735088038B60080
:10029000B7013608B800922008003208073A03195F
:1002A0005B290B3A03196029063A03196829023AB7
:1002B00003196E2973290130B300B4003B2178295A
:1002C000B7010130B80092200230B3001D20782918
:1002D0000130B3000230B4003B217829B70110305F
:1002E000B800922078290130B7003208B800922077
:1002F00008000B08AA008B13831603178C170C1425
:10030000000000000318AB2983120C087F39031387
:10031000AB0003170D080313AC0003170F080313FA
:10032000AD002B08B2004D212C0803178D000313DC
:100330002D0803178F0083168C170C140000000083
:1003400083120313A90BA529A82983160317AB2928
:10035000CA298316031783120C0D0E0D7F39031360
:10036000AB0003170D080313AC0003170F080313AA
:10037000AD002B08B2004D212C0803178D0003138C
:100380002D0803178F008D0A03198F0A031003131A
:10039000A90B7C29AA1B8B178A110A12042BB10105
:1003A0000408B0003110831B31142A0EF038AC0061
:1003B000AC07E23EAD00323EAF002A080F39AD0770
:1003C000AD07AF07E93EAE00AE07AE07290E0F3905
:1003D000AE07AF07AE0DAF0DAF09AF0D29080F394E
:1003E000AF07AC0D0730AB000A30AF07AE03031CFC
:1003F000F529AE07AD03031CF929AD07AC03031CB7
:10040000FD29AC07AB03031C012A2B3084008313A6
:1004100007303005301384072F30040203193017DA
:100420000008F700031D1C2A301B1C2A301A2E2A34
:10043000B0191C2A20301F2AB01530123030F707AF
:10044000AA010408A9002A10831B2A147708B20005
:100450004D212908840083132A188317840A301F2A
:100460000C2A0800FF30A00083161F149F141F15CC
:100470009F1107309C0083131F3083058312F828D7
:1004800083161F1383121F139F1383169F17831244
:100490001F1483161F109F101F119F112830F80082
:1004A00083121F08C73978049F0083161F109F10FE
:1004B0001F119F112830F80083121F08C7397804D4
:1004C0009F001F151F19622A83161E088312A3009E
:1004D0001E08A4000130B3001D203030F8001F08B2
:1004E000C73978049F001F151F19742A83161E0828
:1004F0008312A1001E08A2000130B3001D20A10834
:10050000031D882A2208023C031D882AA601A50192
:10051000A308031D912A2408023C031D912AA80167
:10052000A7012208013C0318AF2AFF3A031D9C2AA9
:100530002108003C0318AF2A00302102A90022083C
:10054000AA000230031C0330AA020310A90DAA0D51
:1005500001302907A5002A08A6000318A60A2408C6
:10056000013C031CC62A2108003CA9000230AA0055
:100570002208031C220FAA020310A90DAA0D0130A4
:100580002907A7002A08A8000318A80A2208013C86
:10059000031CDD2A2108FF3CA9000130AA00220823
:1005A000031C220FAA020310A90DAA0D013029076E
:1005B000A5002A08A6000318A60A2408013C031C6B
:1005C000F42A2308FF3CA9000130AA002408031CD8
:1005D000240FAA020310A90DAA0D01302907A700B4
:1005E0002A08A8000318A80A83161F149F141F15B1
:1005F0009F110C30831203178D0000308F00031001
:1006000014300313A9007929093084002608AA00B0
:100610002508A900CF212030B2004D212C30B20096
:100620004D212030B2004D21093084002808AA0055
:100630002708A900CF211E30B3001D20552A6300D2
:02400E00323F3F
:00000001FF
;PIC16F877A
;CRC=668B  CREATED="12-Aðu-20 18:23"
